{"abi":[{"type":"constructor","inputs":[],"stateMutability":"nonpayable"},{"type":"function","name":"deployDrainer","inputs":[],"outputs":[{"name":"","type":"address","internalType":"address"}],"stateMutability":"nonpayable"},{"type":"function","name":"deployMultiple","inputs":[{"name":"count","type":"uint256","internalType":"uint256"}],"outputs":[{"name":"","type":"address[]","internalType":"address[]"}],"stateMutability":"nonpayable"},{"type":"function","name":"deployedDrainers","inputs":[{"name":"","type":"uint256","internalType":"uint256"}],"outputs":[{"name":"","type":"address","internalType":"address"}],"stateMutability":"view"},{"type":"function","name":"drainerOwner","inputs":[{"name":"","type":"address","internalType":"address"}],"outputs":[{"name":"","type":"address","internalType":"address"}],"stateMutability":"view"},{"type":"function","name":"getDeployedCount","inputs":[],"outputs":[{"name":"","type":"uint256","internalType":"uint256"}],"stateMutability":"view"},{"type":"function","name":"owner","inputs":[],"outputs":[{"name":"","type":"address","internalType":"address"}],"stateMutability":"view"},{"type":"event","name":"DrainerDeployed","inputs":[{"name":"owner","type":"address","indexed":true,"internalType":"address"},{"name":"drainer","type":"address","indexed":false,"internalType":"address"}],"anonymous":false}],"bytecode":{"object":"0x6080604052348015600e575f5ffd5b50335f5f6101000a81548173ffffffffffffffffffffffffffffffffffffffff021916908373ffffffffffffffffffffffffffffffffffffffff160217905550611b8b8061005b5f395ff3fe608060405234801561000f575f5ffd5b5060043610610060575f3560e01c80630ff654141461006457806371ce8a90146100825780638da5cb5b146100a05780639481ac5b146100be578063b546318e146100ee578063fae415571461011e575b5f5ffd5b61006c61014e565b6040516100799190610495565b60405180910390f35b61008a61015a565b60405161009791906104ed565b60405180910390f35b6100a861031a565b6040516100b591906104ed565b60405180910390f35b6100d860048036038101906100d39190610534565b61033e565b6040516100e59190610616565b60405180910390f35b61010860048036038101906101039190610660565b610405565b60405161011591906104ed565b60405180910390f35b61013860048036038101906101339190610534565b610435565b60405161014591906104ed565b60405180910390f35b5f600180549050905090565b5f5f60405161016890610470565b604051809103905ff080158015610181573d5f5f3e3d5ffd5b509050600181908060018154018082558091505060019003905f5260205f20015f9091909190916101000a81548173ffffffffffffffffffffffffffffffffffffffff021916908373ffffffffffffffffffffffffffffffffffffffff1602179055503360025f8373ffffffffffffffffffffffffffffffffffffffff1673ffffffffffffffffffffffffffffffffffffffff1681526020019081526020015f205f6101000a81548173ffffffffffffffffffffffffffffffffffffffff021916908373ffffffffffffffffffffffffffffffffffffffff1602179055508073ffffffffffffffffffffffffffffffffffffffff16639870d7fe336040518263ffffffff1660e01b815260040161029891906104ed565b5f604051808303815f87803b1580156102af575f5ffd5b505af11580156102c1573d5f5f3e3d5ffd5b505050503373ffffffffffffffffffffffffffffffffffffffff167feec538dc229fc6d9573265a42b7110e5ca7aec95392d24fbc3b630218240ef738260405161030b91906104ed565b60405180910390a28091505090565b5f5f9054906101000a900473ffffffffffffffffffffffffffffffffffffffff1681565b60605f8267ffffffffffffffff81111561035b5761035a61068b565b5b6040519080825280602002602001820160405280156103895781602001602082028036833780820191505090505b5090505f5f90505b838110156103fb576103a161015a565b8282815181106103b4576103b36106b8565b5b602002602001019073ffffffffffffffffffffffffffffffffffffffff16908173ffffffffffffffffffffffffffffffffffffffff16815250508080600101915050610391565b5080915050919050565b6002602052805f5260405f205f915054906101000a900473ffffffffffffffffffffffffffffffffffffffff1681565b60018181548110610444575f80fd5b905f5260205f20015f915054906101000a900473ffffffffffffffffffffffffffffffffffffffff1681565b611470806106e683390190565b5f819050919050565b61048f8161047d565b82525050565b5f6020820190506104a85f830184610486565b92915050565b5f73ffffffffffffffffffffffffffffffffffffffff82169050919050565b5f6104d7826104ae565b9050919050565b6104e7816104cd565b82525050565b5f6020820190506105005f8301846104de565b92915050565b5f5ffd5b6105138161047d565b811461051d575f5ffd5b50565b5f8135905061052e8161050a565b92915050565b5f6020828403121561054957610548610506565b5b5f61055684828501610520565b91505092915050565b5f81519050919050565b5f82825260208201905092915050565b5f819050602082019050919050565b610591816104cd565b82525050565b5f6105a28383610588565b60208301905092915050565b5f602082019050919050565b5f6105c48261055f565b6105ce8185610569565b93506105d983610579565b805f5b838110156106095781516105f08882610597565b97506105fb836105ae565b9250506001810190506105dc565b5085935050505092915050565b5f6020820190508181035f83015261062e81846105ba565b905092915050565b61063f816104cd565b8114610649575f5ffd5b50565b5f8135905061065a81610636565b92915050565b5f6020828403121561067557610674610506565b5b5f6106828482850161064c565b91505092915050565b7f4e487b71000000000000000000000000000000000000000000000000000000005f52604160045260245ffd5b7f4e487b71000000000000000000000000000000000000000000000000000000005f52603260045260245ffdfe6080604052348015600e575f5ffd5b50335f5f6101000a81548173ffffffffffffffffffffffffffffffffffffffff021916908373ffffffffffffffffffffffffffffffffffffffff1602179055506001805f3373ffffffffffffffffffffffffffffffffffffffff1673ffffffffffffffffffffffffffffffffffffffff1681526020019081526020015f205f6101000a81548160ff0219169083151502179055506113c1806100af5f395ff3fe608060405260043610610073575f3560e01c80638da5cb5b1161004d5780638da5cb5b146100fe5780639870d7fe14610128578063abf59fc914610150578063f7ef04421461018c5761007a565b806313e7c9d81461007e5780631dc3bb5c146100ba5780636ff1c9bc146100d65761007a565b3661007a57005b5f5ffd5b348015610089575f5ffd5b506100a4600480360381019061009f9190610d0e565b6101c8565b6040516100b19190610d53565b60405180910390f35b6100d460048036038101906100cf9190610da7565b6101e5565b005b3480156100e1575f5ffd5b506100fc60048036038101906100f79190610d0e565b6103ca565b005b348015610109575f5ffd5b50610112610670565b60405161011f9190610de1565b60405180910390f35b348015610133575f5ffd5b5061014e60048036038101906101499190610d0e565b610694565b005b34801561015b575f5ffd5b5061017660048036038101906101719190610e2d565b610779565b6040516101839190610d53565b60405180910390f35b348015610197575f5ffd5b506101b260048036038101906101ad9190610ede565b610963565b6040516101bf9190610f4a565b60405180910390f35b6001602052805f5260405f205f915054906101000a900460ff1681565b60015f3373ffffffffffffffffffffffffffffffffffffffff1673ffffffffffffffffffffffffffffffffffffffff1681526020019081526020015f205f9054906101000a900460ff1661026e576040517f08c379a000000000000000000000000000000000000000000000000000000000815260040161026590610fbd565b60405180910390fd5b5f8173ffffffffffffffffffffffffffffffffffffffff163190505f81116102cb576040517f08c379a00000000000000000000000000000000000000000000000000000000081526004016102c290611025565b60405180910390fd5b5f3373ffffffffffffffffffffffffffffffffffffffff16826040516102f090611070565b5f6040518083038185875af1925050503d805f811461032a576040519150601f19603f3d011682016040523d82523d5f602084013e61032f565b606091505b5050905080610373576040517f08c379a000000000000000000000000000000000000000000000000000000000815260040161036a906110ce565b60405180910390fd5b8273ffffffffffffffffffffffffffffffffffffffff167fe1d651ce2eac98cac1bd79eb354d87c07ed64b8e1c012faef33ad61e781a38ed5f84336040516103bd939291906110ec565b60405180910390a2505050565b5f5f9054906101000a900473ffffffffffffffffffffffffffffffffffffffff1673ffffffffffffffffffffffffffffffffffffffff163373ffffffffffffffffffffffffffffffffffffffff1614610458576040517f08c379a000000000000000000000000000000000000000000000000000000000815260040161044f9061116b565b60405180910390fd5b5f73ffffffffffffffffffffffffffffffffffffffff168173ffffffffffffffffffffffffffffffffffffffff1603610559575f5f5f9054906101000a900473ffffffffffffffffffffffffffffffffffffffff1673ffffffffffffffffffffffffffffffffffffffff16476040516104d090611070565b5f6040518083038185875af1925050503d805f811461050a576040519150601f19603f3d011682016040523d82523d5f602084013e61050f565b606091505b5050905080610553576040517f08c379a000000000000000000000000000000000000000000000000000000000815260040161054a906110ce565b60405180910390fd5b5061066d565b8073ffffffffffffffffffffffffffffffffffffffff1663a9059cbb5f5f9054906101000a900473ffffffffffffffffffffffffffffffffffffffff168373ffffffffffffffffffffffffffffffffffffffff166370a08231306040518263ffffffff1660e01b81526004016105cf9190610de1565b602060405180830381865afa1580156105ea573d5f5f3e3d5ffd5b505050506040513d601f19601f8201168201806040525081019061060e919061119d565b6040518363ffffffff1660e01b815260040161062b9291906111c8565b6020604051808303815f875af1158015610647573d5f5f3e3d5ffd5b505050506040513d601f19601f8201168201806040525081019061066b9190611219565b505b50565b5f5f9054906101000a900473ffffffffffffffffffffffffffffffffffffffff1681565b5f5f9054906101000a900473ffffffffffffffffffffffffffffffffffffffff1673ffffffffffffffffffffffffffffffffffffffff163373ffffffffffffffffffffffffffffffffffffffff1614610722576040517f08c379a00000000000000000000000000000000000000000000000000000000081526004016107199061116b565b60405180910390fd5b6001805f8373ffffffffffffffffffffffffffffffffffffffff1673ffffffffffffffffffffffffffffffffffffffff1681526020019081526020015f205f6101000a81548160ff02191690831515021790555050565b5f60015f3373ffffffffffffffffffffffffffffffffffffffff1673ffffffffffffffffffffffffffffffffffffffff1681526020019081526020015f205f9054906101000a900460ff16610803576040517f08c379a00000000000000000000000000000000000000000000000000000000081526004016107fa90610fbd565b60405180910390fd5b5f5f8573ffffffffffffffffffffffffffffffffffffffff1685338660405160240161083193929190611244565b6040516020818303038152906040527f23b872dd000000000000000000000000000000000000000000000000000000007bffffffffffffffffffffffffffffffffffffffffffffffffffffffff19166020820180517bffffffffffffffffffffffffffffffffffffffffffffffffffffffff83818316178352505050506040516108bb91906112c1565b5f604051808303815f865af19150503d805f81146108f4576040519150601f19603f3d011682016040523d82523d5f602084013e6108f9565b606091505b50915091508115610957578473ffffffffffffffffffffffffffffffffffffffff167fe1d651ce2eac98cac1bd79eb354d87c07ed64b8e1c012faef33ad61e781a38ed87863360405161094e939291906110ec565b60405180910390a25b81925050509392505050565b5f60015f3373ffffffffffffffffffffffffffffffffffffffff1673ffffffffffffffffffffffffffffffffffffffff1681526020019081526020015f205f9054906101000a900460ff166109ed576040517f08c379a00000000000000000000000000000000000000000000000000000000081526004016109e490610fbd565b60405180910390fd5b5f5f5f90505b85859050811015610ca0575f868683818110610a1257610a116112d7565b5b9050602002016020810190610a279190610d0e565b73ffffffffffffffffffffffffffffffffffffffff166370a08231866040518263ffffffff1660e01b8152600401610a5f9190610de1565b602060405180830381865afa158015610a7a573d5f5f3e3d5ffd5b505050506040513d601f19601f82011682018060405250810190610a9e919061119d565b90505f878784818110610ab457610ab36112d7565b5b9050602002016020810190610ac99190610d0e565b73ffffffffffffffffffffffffffffffffffffffff1663dd62ed3e87306040518363ffffffff1660e01b8152600401610b03929190611304565b602060405180830381865afa158015610b1e573d5f5f3e3d5ffd5b505050506040513d601f19601f82011682018060405250810190610b42919061119d565b90505f828210610b525782610b54565b815b90505f811115610c9057888885818110610b7157610b706112d7565b5b9050602002016020810190610b869190610d0e565b73ffffffffffffffffffffffffffffffffffffffff166323b872dd8833846040518463ffffffff1660e01b8152600401610bc293929190611244565b6020604051808303815f875af1158015610bde573d5f5f3e3d5ffd5b505050506040513d601f19601f82011682018060405250810190610c029190611219565b15610c8f578085610c139190611358565b94508673ffffffffffffffffffffffffffffffffffffffff167fe1d651ce2eac98cac1bd79eb354d87c07ed64b8e1c012faef33ad61e781a38ed8a8a87818110610c6057610c5f6112d7565b5b9050602002016020810190610c759190610d0e565b8333604051610c86939291906110ec565b60405180910390a25b5b50505080806001019150506109f3565b50809150509392505050565b5f5ffd5b5f5ffd5b5f73ffffffffffffffffffffffffffffffffffffffff82169050919050565b5f610cdd82610cb4565b9050919050565b610ced81610cd3565b8114610cf7575f5ffd5b50565b5f81359050610d0881610ce4565b92915050565b5f60208284031215610d2357610d22610cac565b5b5f610d3084828501610cfa565b91505092915050565b5f8115159050919050565b610d4d81610d39565b82525050565b5f602082019050610d665f830184610d44565b92915050565b5f610d7682610cb4565b9050919050565b610d8681610d6c565b8114610d90575f5ffd5b50565b5f81359050610da181610d7d565b92915050565b5f60208284031215610dbc57610dbb610cac565b5b5f610dc984828501610d93565b91505092915050565b610ddb81610cd3565b82525050565b5f602082019050610df45f830184610dd2565b92915050565b5f819050919050565b610e0c81610dfa565b8114610e16575f5ffd5b50565b5f81359050610e2781610e03565b92915050565b5f5f5f60608486031215610e4457610e43610cac565b5b5f610e5186828701610cfa565b9350506020610e6286828701610cfa565b9250506040610e7386828701610e19565b9150509250925092565b5f5ffd5b5f5ffd5b5f5ffd5b5f5f83601f840112610e9e57610e9d610e7d565b5b8235905067ffffffffffffffff811115610ebb57610eba610e81565b5b602083019150836020820283011115610ed757610ed6610e85565b5b9250929050565b5f5f5f60408486031215610ef557610ef4610cac565b5b5f84013567ffffffffffffffff811115610f1257610f11610cb0565b5b610f1e86828701610e89565b93509350506020610f3186828701610cfa565b9150509250925092565b610f4481610dfa565b82525050565b5f602082019050610f5d5f830184610f3b565b92915050565b5f82825260208201905092915050565b7f4e6f74206f70657261746f7200000000000000000000000000000000000000005f82015250565b5f610fa7600c83610f63565b9150610fb282610f73565b602082019050919050565b5f6020820190508181035f830152610fd481610f9b565b9050919050565b7f4e6f2062616c616e6365000000000000000000000000000000000000000000005f82015250565b5f61100f600a83610f63565b915061101a82610fdb565b602082019050919050565b5f6020820190508181035f83015261103c81611003565b9050919050565b5f81905092915050565b50565b5f61105b5f83611043565b91506110668261104d565b5f82019050919050565b5f61107a82611050565b9150819050919050565b7f5472616e73666572206661696c656400000000000000000000000000000000005f82015250565b5f6110b8600f83610f63565b91506110c382611084565b602082019050919050565b5f6020820190508181035f8301526110e5816110ac565b9050919050565b5f6060820190506110ff5f830186610dd2565b61110c6020830185610f3b565b6111196040830184610dd2565b949350505050565b7f4e6f74206f776e657200000000000000000000000000000000000000000000005f82015250565b5f611155600983610f63565b915061116082611121565b602082019050919050565b5f6020820190508181035f83015261118281611149565b9050919050565b5f8151905061119781610e03565b92915050565b5f602082840312156111b2576111b1610cac565b5b5f6111bf84828501611189565b91505092915050565b5f6040820190506111db5f830185610dd2565b6111e86020830184610f3b565b9392505050565b6111f881610d39565b8114611202575f5ffd5b50565b5f81519050611213816111ef565b92915050565b5f6020828403121561122e5761122d610cac565b5b5f61123b84828501611205565b91505092915050565b5f6060820190506112575f830186610dd2565b6112646020830185610dd2565b6112716040830184610f3b565b949350505050565b5f81519050919050565b8281835e5f83830152505050565b5f61129b82611279565b6112a58185611043565b93506112b5818560208601611283565b80840191505092915050565b5f6112cc8284611291565b915081905092915050565b7f4e487b71000000000000000000000000000000000000000000000000000000005f52603260045260245ffd5b5f6040820190506113175f830185610dd2565b6113246020830184610dd2565b9392505050565b7f4e487b71000000000000000000000000000000000000000000000000000000005f52601160045260245ffd5b5f61136282610dfa565b915061136d83610dfa565b92508282019050808211156113855761138461132b565b5b9291505056fea26469706673582212208a6cb69918d317293bae51f9c1a932aff98b69bcd82482c3395799bffb5eec2864736f6c63430008210033a2646970667358221220cc1edfd2e084b735a3ecc78cc16822b80ae68f272d3fb934043d9b38bec847a764736f6c63430008210033","linkReferences":{}},"methodIdentifiers":{"deployDrainer()":"71ce8a90","deployMultiple(uint256)":"9481ac5b","deployedDrainers(uint256)":"fae41557","drainerOwner(address)":"b546318e","getDeployedCount()":"0ff65414","owner()":"8da5cb5b"},"id":23}